{
  "address": "0x8B5Bb3D91A410706FC95d009DF622cb6f9C06BC9",
  "abi": [
    {
      "inputs": [
        {
          "internalType": "address",
          "name": "zimaRouterAddr",
          "type": "address"
        }
      ],
      "stateMutability": "nonpayable",
      "type": "constructor"
    },
    {
      "inputs": [
        {
          "internalType": "address",
          "name": "recipient",
          "type": "address"
        },
        {
          "internalType": "address",
          "name": "tokenTo",
          "type": "address"
        },
        {
          "internalType": "uint256",
          "name": "amountOutMin",
          "type": "uint256"
        },
        {
          "internalType": "uint256",
          "name": "deadline",
          "type": "uint256"
        }
      ],
      "name": "swapExactETHForTokens",
      "outputs": [],
      "stateMutability": "payable",
      "type": "function"
    },
    {
      "inputs": [
        {
          "internalType": "address payable",
          "name": "recipient",
          "type": "address"
        },
        {
          "internalType": "address",
          "name": "tokenFrom",
          "type": "address"
        },
        {
          "internalType": "uint256",
          "name": "amountIn",
          "type": "uint256"
        },
        {
          "internalType": "uint256",
          "name": "amountOutMin",
          "type": "uint256"
        },
        {
          "internalType": "uint256",
          "name": "deadline",
          "type": "uint256"
        }
      ],
      "name": "swapExactTokensForETH",
      "outputs": [],
      "stateMutability": "nonpayable",
      "type": "function"
    },
    {
      "stateMutability": "payable",
      "type": "receive"
    }
  ],
  "transactionHash": "0x5822168ac53467cf40ea80598faf5a53e78b96d07af815d8a79eebda74033562",
  "args": [
    "0x91043e64AB377E31A1D2E8FaA9d0ea2B694f6d0c"
  ],
  "numDeployments": 1,
  "solcInputHash": "886f34cd1191700a3a6414e5990e1476",
  "bytecode": "0x60803461010057601f610a0138819003918201601f19168301916001600160401b038311848410176101055780849260209460405283398101031261010057516001600160a01b0381169081900361010057600080546001600160a01b031990811690921790554660010361009c57737a250d5630b4cf539739df2c5dacb4c659f2488d9060015416176001555b6040516108e5908161011c8239f35b466005036100c757737a250d5630b4cf539739df2c5dacb4c659f2488d90600154161760015561008d565b60405162461bcd60e51b81526020600482015260116024820152703ab739bab83837b93a32b21031b430b4b760791b6044820152606490fd5b600080fd5b634e487b7160e01b600052604160045260246000fdfe60406080815260049081361015610020575b5050361561001e57600080fd5b005b600090813560e01c806312d4b07c146103dc5763b1f0d840146100435750610011565b346103d85760a03660031901126103d8576001600160a01b03833581811692908390036103d45761007261050a565b94604480358351946100838661054a565b6002865260209885368b8901378161009a88610588565b9116809152848a838b54168851928380926315ab88c960e31b82525afa9081156103ca578a9161039d575b50826100d0896105ab565b911690528160015416908315801561032c575b156102cb578651918b83019063095ea7b360e01b825260248401528486840152858352608083019267ffffffffffffffff818510818611176102b65760c08201908111858210176102b65789528c84527f5361666545524332303a206c6f772d6c6576656c2063616c6c206661696c656460a0820152516101769392918c91829182855af1610170610617565b9161069b565b80518a8115918215610292575b505090501561023d578798506001979697541690813b15610239578680946101d260a0988851998a978896879563791ac94760e01b8752860152606435602486015284015260a48301906105da565b306064830152608435608483015203925af19081156102305750610219575b5080808061021694610203478261076f565b5047905af1610210610617565b50610657565b80f35b6102238291610520565b61022d57386101f1565b80fd5b513d84823e3d90fd5b8680fd5b845162461bcd60e51b81528085018a9052602a60248201527f5361666545524332303a204552433230206f7065726174696f6e20646964206e81850152691bdd081cdd58d8d9595960b21b6064820152608490fd5b83809293500103126102b25789015180151581036102b257808a38610183565b8880fd5b604189634e487b7160e01b6000525260246000fd5b865162461bcd60e51b81528087018c9052603660248201527f5361666545524332303a20617070726f76652066726f6d206e6f6e2d7a65726f818701527520746f206e6f6e2d7a65726f20616c6c6f77616e636560501b6064820152608490fd5b508651636eb1769f60e11b81523087820152602481018390528b818781855afa908115610393578b91610361575b50156100e3565b90508b81813d831161038c575b6103788183610566565b8101031261038757513861035a565b600080fd5b503d61036e565b88513d8d823e3d90fd5b6103bd91508b3d8d116103c3575b6103b58183610566565b8101906105bb565b386100c5565b503d6103ab565b87513d8c823e3d90fd5b8380fd5b5080fd5b50829060803660031901126105065781356001600160a01b0381811693859290918582036103d45761041761040f61050a565b92349061076f565b508451916104248361054a565b6002835285366020850137836020838754168851928380926315ab88c960e31b82525afa9081156104fc5786916104de575b508261046185610588565b911690528161046f846105ab565b91169052600154169047823b156104da576104af9386519788958694859363b6f9de9560e01b8552604435908501526080602485015260848401906105da565b906044830152606435606483015203925af190811561023057506104d1575080f35b61021690610520565b8480fd5b6104f6915060203d81116103c3576103b58183610566565b89610456565b87513d88823e3d90fd5b8280fd5b602435906001600160a01b038216820361038757565b67ffffffffffffffff811161053457604052565b634e487b7160e01b600052604160045260246000fd5b6060810190811067ffffffffffffffff82111761053457604052565b90601f8019910116810190811067ffffffffffffffff82111761053457604052565b8051156105955760200190565b634e487b7160e01b600052603260045260246000fd5b8051600110156105955760400190565b9081602091031261038757516001600160a01b03811681036103875790565b90815180825260208080930193019160005b8281106105fa575050505090565b83516001600160a01b0316855293810193928101926001016105ec565b3d15610652573d9067ffffffffffffffff82116105345760405191610646601f8201601f191660200184610566565b82523d6000602084013e565b606090565b1561065e57565b60405162461bcd60e51b81526020600482015260156024820152746661696c656420746f20636f6c6c6563742066656560581b6044820152606490fd5b919290156106fd57508151156106af575090565b3b156106b85790565b60405162461bcd60e51b815260206004820152601d60248201527f416464726573733a2063616c6c20746f206e6f6e2d636f6e74726163740000006044820152606490fd5b8251909150156107105750805190602001fd5b6040519062461bcd60e51b82528160208060048301528251908160248401526000935b828510610756575050604492506000838284010152601f80199101168101030190fd5b8481018201518686016044015293810193859350610733565b60008054604051630758dc5560e11b81526001600160a01b0393841660048201529192908116916020908181602481875afa908115610863578591610882575b5080860290868204148615171561086e578161271060049204946040519283809263792fa5ab60e11b82525afa9182156108635791849186938492610826575b5050828092610805958293165af1610210610617565b8203918211610812575090565b634e487b7160e01b81526011600452602490fd5b925092505081813d831161085c575b61083f8183610566565b810103126103d4575181811681036103d4578390839082806107ef565b503d610835565b6040513d87823e3d90fd5b634e487b7160e01b85526011600452602485fd5b90508181813d83116108a8575b6108998183610566565b810103126104da5751386107af565b503d61088f56fea26469706673582212208e8123b8475ce89015320153fc5dc42289579b3646f859ca063ce91d6f64ae5964736f6c63430008110033",
  "devdoc": {
    "kind": "dev",
    "methods": {},
    "version": 1
  },
  "userdoc": {
    "kind": "user",
    "methods": {
      "swapExactTokensForETH(address,address,uint256,uint256,uint256)": {
        "notice": "USER INTERFACE *"
      }
    },
    "version": 1
  },
  "storageLayout": {
    "storage": [
      {
        "astId": 3245,
        "contract": "contracts/UniswapV2Adapter.sol:UniswapV2Adapter",
        "label": "_zimaRouter",
        "offset": 0,
        "slot": "0",
        "type": "t_contract(IZimaRouter)3951"
      },
      {
        "astId": 3248,
        "contract": "contracts/UniswapV2Adapter.sol:UniswapV2Adapter",
        "label": "_router",
        "offset": 0,
        "slot": "1",
        "type": "t_contract(IUniswapV2Router02)4347"
      }
    ],
    "types": {
      "t_contract(IUniswapV2Router02)4347": {
        "encoding": "inplace",
        "label": "contract IUniswapV2Router02",
        "numberOfBytes": "20"
      },
      "t_contract(IZimaRouter)3951": {
        "encoding": "inplace",
        "label": "contract IZimaRouter",
        "numberOfBytes": "20"
      }
    }
  }
}