{
  "address": "0x80B45861f1b9d71CCf41089baA5610e39eBe45aE",
  "abi": [
    {
      "inputs": [
        {
          "internalType": "address",
          "name": "zimaRouterAddr",
          "type": "address"
        },
        {
          "internalType": "address",
          "name": "uniswapV3FactoryAddr",
          "type": "address"
        },
        {
          "internalType": "address",
          "name": "swapRouterAddr",
          "type": "address"
        }
      ],
      "stateMutability": "nonpayable",
      "type": "constructor"
    },
    {
      "inputs": [
        {
          "internalType": "address",
          "name": "recipient",
          "type": "address"
        },
        {
          "internalType": "address",
          "name": "tokenTo",
          "type": "address"
        },
        {
          "internalType": "uint256",
          "name": "amountOutMin",
          "type": "uint256"
        },
        {
          "internalType": "uint256",
          "name": "deadline",
          "type": "uint256"
        },
        {
          "internalType": "bytes",
          "name": "data",
          "type": "bytes"
        }
      ],
      "name": "swapExactETHForTokens",
      "outputs": [],
      "stateMutability": "payable",
      "type": "function"
    },
    {
      "inputs": [
        {
          "internalType": "address payable",
          "name": "recipient",
          "type": "address"
        },
        {
          "internalType": "address",
          "name": "tokenFrom",
          "type": "address"
        },
        {
          "internalType": "uint256",
          "name": "amountIn",
          "type": "uint256"
        },
        {
          "internalType": "uint256",
          "name": "amountOutMin",
          "type": "uint256"
        },
        {
          "internalType": "uint256",
          "name": "deadline",
          "type": "uint256"
        },
        {
          "internalType": "bytes",
          "name": "data",
          "type": "bytes"
        }
      ],
      "name": "swapExactTokensForETH",
      "outputs": [],
      "stateMutability": "nonpayable",
      "type": "function"
    },
    {
      "stateMutability": "payable",
      "type": "receive"
    }
  ],
  "transactionHash": "0x78a1501a31808dfc92bc95620bda9a6984c4ebab65504ed1360cf16d64d932ff",
  "args": [
    "0xBd0E4dB286669f658E45100f60df9BfB9a4F3140",
    "0x1F98431c8aD98523631AE4a59f267346ea31F984",
    "0x7a250d5630B4cF539739dF2C5dAcb4c659F2488D"
  ],
  "numDeployments": 1,
  "solcInputHash": "ebbd191994b94818d138f5d258bbc84a",
  "bytecode": "0x6080346100a057601f610d7c38819003918201601f19168301916001600160401b038311848410176100a5578084926060946040528339810103126100a057610047816100bb565b906100606040610059602084016100bb565b92016100bb565b60018060a01b0380928160018060a01b031995168560005416176000551683600254161760025516906001541617600155604051610cac90816100d08239f35b600080fd5b634e487b7160e01b600052604160045260246000fd5b51906001600160a01b03821682036100a05756fe60406080815260048036101561001f575b5050361561001d57600080fd5b005b600091823560e01c80630f412df81461030657635d962c7d146100425750610010565b60a03660031901126103025781356001600160a01b03818116939084830361021f5761006c61083b565b9460843567ffffffffffffffff81116102fe5761008f6100a591369086016108d6565b9461009e848a5416331461091d565b3490610b19565b908288541696865180986315ab88c960e31b8252818760209b8c935afa9081156102f4579085918b916102c7575b501695863b156102b9578751630d0e30db60e41b81528a9081818981898d5af180156102bd576102a5575b50600154895163095ea7b360e01b81529087166001600160a01b03168882019081526020810187905290918b918391908290819060400103918c5af1801561029b5761015e8894938c93899361026e575b5083808251830101910161095c565b1689519384809263ddca3f4360e01b82525afa918a83156102635792866101ea9a9997959362ffffff938d9a989693610234575b508a519861019f8a610851565b8952168888015216878601526060850152606435608085015260a084015260443560c08401528760e0840152600154169087855180978195829463414bf38960e01b84528301610996565b03925af190811561022b57506101fe578280f35b813d8311610224575b6102118183610898565b8101031261021f5738808280f35b600080fd5b503d610207565b513d85823e3d90fd5b6102559193508a3d8c1161025c575b61024d8183610898565b81019061097b565b9138610192565b503d610243565b8951903d90823e3d90fd5b61028d90853d8711610294575b6102858183610898565b810190610a2d565b503861014f565b503d61027b565b89513d8d823e3d90fd5b6102ae90610884565b6102b95789386100fe565b8980fd5b8a513d84823e3d90fd5b6102e791508a3d8c116102ed575b6102df8183610898565b81019061095c565b386100d3565b503d6102d5565b88513d8c823e3d90fd5b8780fd5b8280fd5b50346103025760c0366003190112610302576001600160a01b03823581811692908390036108375761033661083b565b9267ffffffffffffffff9260443560a4358581116108335761035c839136908a016108d6565b9661036b828b5416331461091d565b1690826001541696811580156107bd575b1561075b57855163095ea7b360e01b60208083019182526001600160a01b039a909a16602480840191909152604480840186905283529998916103c0606482610898565b885192838a01908111848210176107495789528983527f5361666545524332303a206c6f772d6c6576656c2063616c6c206661696c65648a8401525161041892918d91829182895af16104116109fd565b9086610a45565b805190888215928315610731575b505050156106dc57918891878561044886838f9998819051830101910161095c565b1688519485809263ddca3f4360e01b82525afa9283156106d25785936106b3575b508385541692875189818d816315ab88c960e31b988982525afa9081156106a9576104f99492878c959362ffffff938b9161068c575b508c51956104ac87610851565b865216858501521689830152306060830152608435608083015260a082015260643560c08201528560e082015284600154168b878a5180968195829463414bf38960e01b84528301610996565b03925af1801561068257908791610659575b5082845416918987518094819382525afa90811561063257839161063c575b5084516370a0823160e01b81523089820152911685828881845afa918215610632578392610603575b50803b156103025786839286519485938492632e1a7d4d60e01b84528c8401525af180156105f9576105e6575b5085808080936105904782610b19565b5047905af161059d6109fd565b50156105a7578480f35b5162461bcd60e51b815292830152601e908201527f6661696c656420746f2073656e642062616c616e636520746f207573657200006044820152606490fd5b6105f290969196610884565b9438610580565b83513d89823e3d90fd5b9091508581813d831161062b575b61061b8183610898565b8101031261030257519038610553565b503d610611565b85513d85823e3d90fd5b6106539150863d88116102ed576102df8183610898565b3861052a565b813d831161067b575b61066c8183610898565b8101031261030257853861050b565b503d610662565b86513d86823e3d90fd5b6106a39150873d89116102ed576102df8183610898565b3861049f565b89513d89823e3d90fd5b6106cb919350883d8a1161025c5761024d8183610898565b9138610469565b87513d87823e3d90fd5b855162461bcd60e51b8152808a01889052602a818a01527f5361666545524332303a204552433230206f7065726174696f6e20646964206e6044820152691bdd081cdd58d8d9595960b21b6064820152608490fd5b6107419350820181019101610a2d565b388881610426565b634e487b7160e01b8e5260418d528b8efd5b855162461bcd60e51b81526020818b0152603660248201527f5361666545524332303a20617070726f76652066726f6d206e6f6e2d7a65726f60448201527520746f206e6f6e2d7a65726f20616c6c6f77616e636560501b6064820152608490fd5b508551636eb1769f60e11b8152308a82015260248101899052602081604481875afa908115610829578b916107f4575b501561037c565b90506020813d8211610821575b8161080e60209383610898565b8101031261081d5751386107ed565b8a80fd5b3d9150610801565b87513d8d823e3d90fd5b8880fd5b8480fd5b602435906001600160a01b038216820361021f57565b610100810190811067ffffffffffffffff82111761086e57604052565b634e487b7160e01b600052604160045260246000fd5b67ffffffffffffffff811161086e57604052565b90601f8019910116810190811067ffffffffffffffff82111761086e57604052565b67ffffffffffffffff811161086e57601f01601f191660200190565b81601f8201121561021f578035906108ed826108ba565b926108fb6040519485610898565b8284526020838301011161021f57816000926020809301838601378301015290565b1561092457565b60405162461bcd60e51b815260206004820152601060248201526f37b7363c903d34b6b0903937baba32b960811b6044820152606490fd5b9081602091031261021f57516001600160a01b038116810361021f5790565b9081602091031261021f575162ffffff8116810361021f5790565b91909160e06101008201938160018060a01b039182815116855282602082015116602086015262ffffff60408201511660408601528260608201511660608601526080810151608086015260a081015160a086015260c081015160c0860152015116910152565b3d15610a28573d90610a0e826108ba565b91610a1c6040519384610898565b82523d6000602084013e565b606090565b9081602091031261021f5751801515810361021f5790565b91929015610aa75750815115610a59575090565b3b15610a625790565b60405162461bcd60e51b815260206004820152601d60248201527f416464726573733a2063616c6c20746f206e6f6e2d636f6e74726163740000006044820152606490fd5b825190915015610aba5750805190602001fd5b6040519062461bcd60e51b82528160208060048301528251908160248401526000935b828510610b00575050604492506000838284010152601f80199101168101030190fd5b8481018201518686016044015293810193859350610add565b60008054604051630758dc5560e11b81526001600160a01b039384166004820152919290811691602091908281602481875afa908115610c2a578591610c49575b50808602908682041486151715610c35578261271060049204946040519283809263792fa5ab60e11b82525afa908115610c2a5785858194829483948491610c0d575b50165af1610ba96109fd565b5015610bd157508203918211610bbd575090565b634e487b7160e01b81526011600452602490fd5b6064906040519062461bcd60e51b8252600482015260156024820152746661696c656420746f20636f6c6c6563742066656560581b6044820152fd5b610c249150883d8a116102ed576102df8183610898565b38610b9d565b6040513d87823e3d90fd5b634e487b7160e01b85526011600452602485fd5b90508281813d8311610c6f575b610c608183610898565b81010312610837575138610b5a565b503d610c5656fea2646970667358221220f1160a71ba36238f5734221af45f30d95cce43fa628626761d2c8a3ce673803264736f6c63430008110033",
  "devdoc": {
    "kind": "dev",
    "methods": {},
    "version": 1
  },
  "userdoc": {
    "kind": "user",
    "methods": {
      "swapExactTokensForETH(address,address,uint256,uint256,uint256,bytes)": {
        "notice": "USER INTERFACE *"
      }
    },
    "version": 1
  },
  "storageLayout": {
    "storage": [
      {
        "astId": 3546,
        "contract": "contracts/UniswapV3Adapter.sol:UniswapV3Adapter",
        "label": "_zimaRouter",
        "offset": 0,
        "slot": "0",
        "type": "t_contract(IZimaRouter)4445"
      },
      {
        "astId": 3549,
        "contract": "contracts/UniswapV3Adapter.sol:UniswapV3Adapter",
        "label": "_router",
        "offset": 0,
        "slot": "1",
        "type": "t_contract(ISwapRouter)4938"
      },
      {
        "astId": 3552,
        "contract": "contracts/UniswapV3Adapter.sol:UniswapV3Adapter",
        "label": "_factory",
        "offset": 0,
        "slot": "2",
        "type": "t_contract(IUniswapV3Factory)5021"
      }
    ],
    "types": {
      "t_contract(ISwapRouter)4938": {
        "encoding": "inplace",
        "label": "contract ISwapRouter",
        "numberOfBytes": "20"
      },
      "t_contract(IUniswapV3Factory)5021": {
        "encoding": "inplace",
        "label": "contract IUniswapV3Factory",
        "numberOfBytes": "20"
      },
      "t_contract(IZimaRouter)4445": {
        "encoding": "inplace",
        "label": "contract IZimaRouter",
        "numberOfBytes": "20"
      }
    }
  }
}