{
  "address": "0x778D9D5b58a92532886c5782C4b83F01034a7250",
  "abi": [
    {
      "inputs": [
        {
          "internalType": "address",
          "name": "zimaRouterAddr",
          "type": "address"
        },
        {
          "internalType": "address",
          "name": "uniswapV2RouterAddr",
          "type": "address"
        }
      ],
      "stateMutability": "nonpayable",
      "type": "constructor"
    },
    {
      "inputs": [
        {
          "internalType": "address",
          "name": "recipient",
          "type": "address"
        },
        {
          "internalType": "address",
          "name": "tokenTo",
          "type": "address"
        },
        {
          "internalType": "uint256",
          "name": "amountOutMin",
          "type": "uint256"
        },
        {
          "internalType": "uint256",
          "name": "deadline",
          "type": "uint256"
        },
        {
          "internalType": "bytes",
          "name": "data",
          "type": "bytes"
        }
      ],
      "name": "swapExactETHForTokens",
      "outputs": [],
      "stateMutability": "payable",
      "type": "function"
    },
    {
      "inputs": [
        {
          "internalType": "address payable",
          "name": "recipient",
          "type": "address"
        },
        {
          "internalType": "address",
          "name": "tokenFrom",
          "type": "address"
        },
        {
          "internalType": "uint256",
          "name": "amountIn",
          "type": "uint256"
        },
        {
          "internalType": "uint256",
          "name": "amountOutMin",
          "type": "uint256"
        },
        {
          "internalType": "uint256",
          "name": "deadline",
          "type": "uint256"
        },
        {
          "internalType": "bytes",
          "name": "data",
          "type": "bytes"
        }
      ],
      "name": "swapExactTokensForETH",
      "outputs": [],
      "stateMutability": "nonpayable",
      "type": "function"
    },
    {
      "stateMutability": "payable",
      "type": "receive"
    }
  ],
  "transactionHash": "0xf4cd3a6c7383cf7249d9eebdaa0cb52baab9b1d4b96392e1cd4599fb3eb1720f",
  "args": [
    "0x74fB30cdd26850Cb15D0B307C5B95F383921B6e6",
    "0x7a250d5630B4cF539739dF2C5dAcb4c659F2488D"
  ],
  "numDeployments": 1,
  "solcInputHash": "ebbd191994b94818d138f5d258bbc84a",
  "bytecode": "0x60803461008d57601f610acf38819003918201601f19168301916001600160401b0383118484101761009257808492604094855283398101031261008d57610052602061004b836100a8565b92016100a8565b600080546001600160a01b039384166001600160a01b03199182161790915560018054929093169116179055604051610a1290816100bd8239f35b600080fd5b634e487b7160e01b600052604160045260246000fd5b51906001600160a01b038216820361008d5756fe60406080815260049081361015610020575b5050361561001e57600080fd5b005b600091823560e01c80630f412df8146101c957635d962c7d146100435750610011565b60a03660031901126101c5576001600160a01b03918135838116928382036101c057859461006f6105a9565b926084359067ffffffffffffffff82116101bc576100936100a99236908601610643565b506100a283895416331461068a565b349061085c565b508351926100b6846105e9565b6002845284366020860137826020838954168751928380926315ab88c960e31b82525afa9081156101b2578891610184575b50826100f3866106c9565b9116905281610101856106ec565b91169052600154164792813b156101805786936101439386519788958694859363b6f9de9560e01b85526044359085015260806024850152608484019061071b565b906044830152606435606483015203925af190811561017757506101645750f35b61016d906105bf565b6101745780f35b80fd5b513d84823e3d90fd5b8680fd5b6101a5915060203d81116101ab575b61019d8183610605565b8101906106fc565b386100e8565b503d610193565b86513d8a823e3d90fd5b8780fd5b600080fd5b8280fd5b5090346101c55760c03660031901126101c55781356001600160a01b0381811692918390036105a5576101fa6105a9565b91604493843560a43567ffffffffffffffff908181116105a1576102219036908a01610643565b50848954169461023286331461068a565b84519161023e836105e9565b60028352896020809888368388013784610257876106c9565b9b16809b528851928380926315ab88c960e31b82525afa908115610597578c9161057a575b5082610287856106ec565b911690528160015416978415801561050a575b156104a95786518881019063095ea7b360e01b825260249a8b820152868c8201528b81526080810193818510818611176104965760c08201908111858210176104965789528984527f5361666545524332303a206c6f772d6c6576656c2063616c6c206661696c656460a0820152516103259392918e91829182855af161031f610758565b91610788565b8051878115918215610472575b505090501561041e5790899160015416803b156101c557855163791ac94760e01b8152808b01949094526064358489015260a0848a0152839182908490829061037f9060a483019061071b565b306064830152608435608483015203925af1801561041457610401575b5086808080936103ac478261085c565b5047905af16103b9610758565b50156103c3578580f35b5162461bcd60e51b815293840152601e908301527f6661696c656420746f2073656e642062616c616e636520746f2075736572000090820152606490fd5b61040d909791976105bf565b953861039c565b83513d8a823e3d90fd5b845162461bcd60e51b8152808a01879052602a818901527f5361666545524332303a204552433230206f7065726174696f6e20646964206e818a0152691bdd081cdd58d8d9595960b21b6064820152608490fd5b838092935001031261049257860151801515810361049257808738610332565b8a80fd5b50634e487b7160e01b8e5260418d528a8efd5b865162461bcd60e51b8152808c01899052603660248201527f5361666545524332303a20617070726f76652066726f6d206e6f6e2d7a65726f818c01527520746f206e6f6e2d7a65726f20616c6c6f77616e636560501b6064820152608490fd5b508651636eb1769f60e11b8152308c820152602481018a905288818c81855afa908115610570578d9161053f575b501561029a565b90508881813d8311610569575b6105568183610605565b81010312610565575138610538565b8c80fd5b503d61054c565b88513d8f823e3d90fd5b6105919150883d8a116101ab5761019d8183610605565b3861027c565b87513d8e823e3d90fd5b8980fd5b8480fd5b602435906001600160a01b03821682036101c057565b67ffffffffffffffff81116105d357604052565b634e487b7160e01b600052604160045260246000fd5b6060810190811067ffffffffffffffff8211176105d357604052565b90601f8019910116810190811067ffffffffffffffff8211176105d357604052565b67ffffffffffffffff81116105d357601f01601f191660200190565b81601f820112156101c05780359061065a82610627565b926106686040519485610605565b828452602083830101116101c057816000926020809301838601378301015290565b1561069157565b60405162461bcd60e51b815260206004820152601060248201526f37b7363c903d34b6b0903937baba32b960811b6044820152606490fd5b8051156106d65760200190565b634e487b7160e01b600052603260045260246000fd5b8051600110156106d65760400190565b908160209103126101c057516001600160a01b03811681036101c05790565b90815180825260208080930193019160005b82811061073b575050505090565b83516001600160a01b03168552938101939281019260010161072d565b3d15610783573d9061076982610627565b916107776040519384610605565b82523d6000602084013e565b606090565b919290156107ea575081511561079c575090565b3b156107a55790565b60405162461bcd60e51b815260206004820152601d60248201527f416464726573733a2063616c6c20746f206e6f6e2d636f6e74726163740000006044820152606490fd5b8251909150156107fd5750805190602001fd5b6040519062461bcd60e51b82528160208060048301528251908160248401526000935b828510610843575050604492506000838284010152601f80199101168101030190fd5b8481018201518686016044015293810193859350610820565b60008054604051630758dc5560e11b81526001600160a01b039384166004820152919290811691602091908281602481875afa9081156109905785916109af575b5080860290868204148615171561099b578261271060049204946040519283809263792fa5ab60e11b82525afa9081156109905791849186938491610953575b50839283928392165af16108ef610758565b501561091757508203918211610903575090565b634e487b7160e01b81526011600452602490fd5b6064906040519062461bcd60e51b8252600482015260156024820152746661696c656420746f20636f6c6c6563742066656560581b6044820152fd5b92505091508281813d8311610989575b61096d8183610605565b810103126105a5575181811681036105a55784918491836108dd565b503d610963565b6040513d87823e3d90fd5b634e487b7160e01b85526011600452602485fd5b90508281813d83116109d5575b6109c68183610605565b810103126105a557513861089d565b503d6109bc56fea264697066735822122016e4c9e256d912a331f95a2a9118d251105cf3bb02a1629f02c5b3c21aa0e03864736f6c63430008110033",
  "devdoc": {
    "kind": "dev",
    "methods": {},
    "version": 1
  },
  "userdoc": {
    "kind": "user",
    "methods": {
      "swapExactTokensForETH(address,address,uint256,uint256,uint256,bytes)": {
        "notice": "USER INTERFACE *"
      }
    },
    "version": 1
  },
  "storageLayout": {
    "storage": [
      {
        "astId": 3245,
        "contract": "contracts/UniswapV2Adapter.sol:UniswapV2Adapter",
        "label": "_zimaRouter",
        "offset": 0,
        "slot": "0",
        "type": "t_contract(IZimaRouter)4445"
      },
      {
        "astId": 3248,
        "contract": "contracts/UniswapV2Adapter.sol:UniswapV2Adapter",
        "label": "_router",
        "offset": 0,
        "slot": "1",
        "type": "t_contract(IUniswapV2Router02)4841"
      }
    ],
    "types": {
      "t_contract(IUniswapV2Router02)4841": {
        "encoding": "inplace",
        "label": "contract IUniswapV2Router02",
        "numberOfBytes": "20"
      },
      "t_contract(IZimaRouter)4445": {
        "encoding": "inplace",
        "label": "contract IZimaRouter",
        "numberOfBytes": "20"
      }
    }
  }
}