{
  "address": "0x74fB30cdd26850Cb15D0B307C5B95F383921B6e6",
  "abi": [
    {
      "inputs": [
        {
          "internalType": "address",
          "name": "admin",
          "type": "address"
        }
      ],
      "stateMutability": "nonpayable",
      "type": "constructor"
    },
    {
      "anonymous": false,
      "inputs": [
        {
          "indexed": false,
          "internalType": "uint256",
          "name": "adapterId",
          "type": "uint256"
        },
        {
          "indexed": false,
          "internalType": "address",
          "name": "adapter",
          "type": "address"
        }
      ],
      "name": "AddAdapter",
      "type": "event"
    },
    {
      "anonymous": false,
      "inputs": [
        {
          "indexed": true,
          "internalType": "bytes32",
          "name": "role",
          "type": "bytes32"
        },
        {
          "indexed": true,
          "internalType": "bytes32",
          "name": "previousAdminRole",
          "type": "bytes32"
        },
        {
          "indexed": true,
          "internalType": "bytes32",
          "name": "newAdminRole",
          "type": "bytes32"
        }
      ],
      "name": "RoleAdminChanged",
      "type": "event"
    },
    {
      "anonymous": false,
      "inputs": [
        {
          "indexed": true,
          "internalType": "bytes32",
          "name": "role",
          "type": "bytes32"
        },
        {
          "indexed": true,
          "internalType": "address",
          "name": "account",
          "type": "address"
        },
        {
          "indexed": true,
          "internalType": "address",
          "name": "sender",
          "type": "address"
        }
      ],
      "name": "RoleGranted",
      "type": "event"
    },
    {
      "anonymous": false,
      "inputs": [
        {
          "indexed": true,
          "internalType": "bytes32",
          "name": "role",
          "type": "bytes32"
        },
        {
          "indexed": true,
          "internalType": "address",
          "name": "account",
          "type": "address"
        },
        {
          "indexed": true,
          "internalType": "address",
          "name": "sender",
          "type": "address"
        }
      ],
      "name": "RoleRevoked",
      "type": "event"
    },
    {
      "anonymous": false,
      "inputs": [
        {
          "indexed": false,
          "internalType": "address",
          "name": "feeWallet",
          "type": "address"
        }
      ],
      "name": "SetFeeWallet",
      "type": "event"
    },
    {
      "anonymous": false,
      "inputs": [
        {
          "indexed": true,
          "internalType": "address",
          "name": "account",
          "type": "address"
        },
        {
          "indexed": false,
          "internalType": "address",
          "name": "tokenFrom",
          "type": "address"
        },
        {
          "indexed": false,
          "internalType": "uint256",
          "name": "amountFrom",
          "type": "uint256"
        },
        {
          "indexed": false,
          "internalType": "address",
          "name": "tokenTo",
          "type": "address"
        },
        {
          "indexed": false,
          "internalType": "uint256",
          "name": "amountTo",
          "type": "uint256"
        }
      ],
      "name": "Swap",
      "type": "event"
    },
    {
      "inputs": [],
      "name": "ADMIN_ROLE",
      "outputs": [
        {
          "internalType": "bytes32",
          "name": "",
          "type": "bytes32"
        }
      ],
      "stateMutability": "view",
      "type": "function"
    },
    {
      "inputs": [],
      "name": "DEFAULT_ADMIN_ROLE",
      "outputs": [
        {
          "internalType": "bytes32",
          "name": "",
          "type": "bytes32"
        }
      ],
      "stateMutability": "view",
      "type": "function"
    },
    {
      "inputs": [],
      "name": "WETH",
      "outputs": [
        {
          "internalType": "address",
          "name": "",
          "type": "address"
        }
      ],
      "stateMutability": "view",
      "type": "function"
    },
    {
      "inputs": [
        {
          "internalType": "uint256",
          "name": "adapterId",
          "type": "uint256"
        },
        {
          "internalType": "address",
          "name": "adapterAddr",
          "type": "address"
        }
      ],
      "name": "__addAdapter",
      "outputs": [],
      "stateMutability": "nonpayable",
      "type": "function"
    },
    {
      "inputs": [
        {
          "internalType": "address payable",
          "name": "feeWallet_",
          "type": "address"
        }
      ],
      "name": "__setFeeWallet",
      "outputs": [],
      "stateMutability": "nonpayable",
      "type": "function"
    },
    {
      "inputs": [
        {
          "internalType": "address",
          "name": "user",
          "type": "address"
        }
      ],
      "name": "feeBps",
      "outputs": [
        {
          "internalType": "uint256",
          "name": "",
          "type": "uint256"
        }
      ],
      "stateMutability": "view",
      "type": "function"
    },
    {
      "inputs": [],
      "name": "feeWallet",
      "outputs": [
        {
          "internalType": "address payable",
          "name": "",
          "type": "address"
        }
      ],
      "stateMutability": "view",
      "type": "function"
    },
    {
      "inputs": [
        {
          "internalType": "bytes32",
          "name": "role",
          "type": "bytes32"
        }
      ],
      "name": "getRoleAdmin",
      "outputs": [
        {
          "internalType": "bytes32",
          "name": "",
          "type": "bytes32"
        }
      ],
      "stateMutability": "view",
      "type": "function"
    },
    {
      "inputs": [
        {
          "internalType": "bytes32",
          "name": "role",
          "type": "bytes32"
        },
        {
          "internalType": "uint256",
          "name": "index",
          "type": "uint256"
        }
      ],
      "name": "getRoleMember",
      "outputs": [
        {
          "internalType": "address",
          "name": "",
          "type": "address"
        }
      ],
      "stateMutability": "view",
      "type": "function"
    },
    {
      "inputs": [
        {
          "internalType": "bytes32",
          "name": "role",
          "type": "bytes32"
        }
      ],
      "name": "getRoleMemberCount",
      "outputs": [
        {
          "internalType": "uint256",
          "name": "",
          "type": "uint256"
        }
      ],
      "stateMutability": "view",
      "type": "function"
    },
    {
      "inputs": [
        {
          "internalType": "bytes32",
          "name": "role",
          "type": "bytes32"
        },
        {
          "internalType": "address",
          "name": "account",
          "type": "address"
        }
      ],
      "name": "grantRole",
      "outputs": [],
      "stateMutability": "nonpayable",
      "type": "function"
    },
    {
      "inputs": [
        {
          "internalType": "bytes32",
          "name": "role",
          "type": "bytes32"
        },
        {
          "internalType": "address",
          "name": "account",
          "type": "address"
        }
      ],
      "name": "hasRole",
      "outputs": [
        {
          "internalType": "bool",
          "name": "",
          "type": "bool"
        }
      ],
      "stateMutability": "view",
      "type": "function"
    },
    {
      "inputs": [
        {
          "internalType": "bytes32",
          "name": "role",
          "type": "bytes32"
        },
        {
          "internalType": "address",
          "name": "account",
          "type": "address"
        }
      ],
      "name": "renounceRole",
      "outputs": [],
      "stateMutability": "nonpayable",
      "type": "function"
    },
    {
      "inputs": [
        {
          "internalType": "bytes32",
          "name": "role",
          "type": "bytes32"
        },
        {
          "internalType": "address",
          "name": "account",
          "type": "address"
        }
      ],
      "name": "revokeRole",
      "outputs": [],
      "stateMutability": "nonpayable",
      "type": "function"
    },
    {
      "inputs": [
        {
          "internalType": "bytes4",
          "name": "interfaceId",
          "type": "bytes4"
        }
      ],
      "name": "supportsInterface",
      "outputs": [
        {
          "internalType": "bool",
          "name": "",
          "type": "bool"
        }
      ],
      "stateMutability": "view",
      "type": "function"
    },
    {
      "inputs": [
        {
          "internalType": "uint256",
          "name": "adapterId",
          "type": "uint256"
        },
        {
          "internalType": "address",
          "name": "recipient",
          "type": "address"
        },
        {
          "internalType": "address",
          "name": "tokenTo",
          "type": "address"
        },
        {
          "internalType": "uint256",
          "name": "amountOutMin",
          "type": "uint256"
        },
        {
          "internalType": "uint256",
          "name": "deadline",
          "type": "uint256"
        },
        {
          "internalType": "bytes",
          "name": "data",
          "type": "bytes"
        }
      ],
      "name": "swapExactETHForTokens",
      "outputs": [],
      "stateMutability": "payable",
      "type": "function"
    },
    {
      "inputs": [
        {
          "internalType": "uint256",
          "name": "adapterId",
          "type": "uint256"
        },
        {
          "internalType": "address payable",
          "name": "recipient",
          "type": "address"
        },
        {
          "internalType": "address",
          "name": "tokenFrom",
          "type": "address"
        },
        {
          "internalType": "uint256",
          "name": "amountIn",
          "type": "uint256"
        },
        {
          "internalType": "uint256",
          "name": "amountOutMin",
          "type": "uint256"
        },
        {
          "internalType": "uint256",
          "name": "deadline",
          "type": "uint256"
        },
        {
          "internalType": "bytes",
          "name": "data",
          "type": "bytes"
        }
      ],
      "name": "swapExactTokensForETH",
      "outputs": [],
      "stateMutability": "nonpayable",
      "type": "function"
    },
    {
      "stateMutability": "payable",
      "type": "receive"
    }
  ],
  "transactionHash": "0xfd037e50a1e5eab6b143981afd0d4dea0b2de46e6648dfa9c5ab2aad0802254e",
  "args": [
    "0xAAAA8C5867f5c44B6025688F481B34514e09fd8d"
  ],
  "numDeployments": 1,
  "solcInputHash": "ebbd191994b94818d138f5d258bbc84a",
  "bytecode": "0x608034620001e757601f620013d438819003918201601f1916830192916001600160401b03841183851017620001ec5780839260409586528339602092839181010312620001e757516001600160a01b0381169190829003620001e7577fdf8b4c520ffe197c5343c6f5aec59570151ef9a492f2c624fd45ddde6135ec42620000b0600093828552848452858520818652845260ff8686205416156200019e575b8285526001845285852062000202565b50808352828252600184842001548160018686200155817fbd79b86ffe0ab8e8776151514217cd7cacd52c909f66475c3af44e129f0b00ff86519580a460326004554660010362000132575050600280546001600160a01b03191673c02aaa39b223fe8d0a0e5c4f27ead9083c756cc21790555b516111449081620002908239f35b4660050362000169575050600280546001600160a01b03191673b4fbf271143f4fbf7b91a5ded31805e42b2208d617905562000124565b62461bcd60e51b8252600482015260116024820152703ab739bab83837b93a32b21031b430b4b760791b604482015260649150fd5b8285528484528585208186528452858520805460ff191660011790553381847f2f8788117e7eff1d82e926ec794901d17c78024a50270940304540a733656f0d8880a4620000a0565b600080fd5b634e487b7160e01b600052604160045260246000fd5b919060018301600090828252806020526040822054156000146200028957845494680100000000000000008610156200027557600186018082558610156200026157836040949596828552602085200155549382526020522055600190565b634e487b7160e01b83526032600452602483fd5b634e487b7160e01b83526041600452602483fd5b5092505056fe60806040818152600480361015610021575b505050361561001f57600080fd5b005b600092833560e01c90816301ffc9a7146108ed575080630eb1b8aa146108c657806320fe9190146107be578063248a9ca3146107955780632f2ff15d146106e257806336568abe146106505780633bb9941f146105ac57806375b238fc146105715780639010d07c1461053157806391d14854146104ec578063a217fddf146104d1578063ad5c4648146104a8578063ca15c87314610481578063d547741f14610443578063f25f4b561461041a578063f92f3fdc146101d35763ffa903c40361001157829160c03660031901126101cf576100fb610976565b61010361098c565b9260a43567ffffffffffffffff81116101cb576101239036908301610a0a565b8135865260056020528386205490926001600160a01b03918216919061014a831515611035565b823b156101c7576101968895838851998a9788968796635d962c7d60e01b885216908601521660248401526064356044840152608435606484015260a0608484015260a4830190610da9565b039134905af19081156101be57506101ab5750f35b6101b4906109a2565b6101bb5780f35b80fd5b513d84823e3d90fd5b8780fd5b8580fd5b5050fd5b509190346104165760e0366003190112610416576101ef610976565b906101f861098c565b606435929067ffffffffffffffff60c4358181116104125761021d9036908901610a0a565b8735875260056020908152858820546001600160a01b03908116948190610245871515611035565b169516928651828101906323b872dd60e01b82528560248201528660448201528960648201526064815260a0810192818410818511176103ff5760e08201908111848210176103ff5789528383527f5361666545524332303a206c6f772d6c6576656c2063616c6c206661696c656460c0820152516102f492918b918291828b5af13d156103f7573d906102d8826109ee565b916102e58b5193846109cc565b82523d8c8684013e5b88611075565b80518281159182156103d3575b505090501561037e5750869783979596973b156101cb5761035e86928851998a97889687956301e825bf60e31b875286015260248501526044840152608435606484015260a435608484015260c060a484015260c4830190610da9565b03925af19081156101be5750610372575080f35b61037b906109a2565b80f35b8860849187519162461bcd60e51b8352820152602a60248201527f5361666545524332303a204552433230206f7065726174696f6e20646964206e6044820152691bdd081cdd58d8d9595960b21b6064820152fd5b83809293500103126103f35781015180151581036103f357808238610301565b8880fd5b6060906102ee565b634e487b7160e01b8c5260418d5260248cfd5b8680fd5b5080fd5b50503461041657816003193601126104165760035490516001600160a01b039091168152602090f35b50903461047d578060031936011261047d5761037b91356104786001610467610976565b938387528660205286200154610a51565b610dce565b8280fd5b503461047d57602036600319011261047d5760209282913581526001845220549051908152f35b50503461041657816003193601126104165760025490516001600160a01b039091168152602090f35b50503461041657816003193601126104165751908152602090f35b503461047d578160031936011261047d578160209360ff9261050c610976565b903582528186528282206001600160a01b039091168252855220549151911615158152f35b503461047d578160031936011261047d5760209261055b9135815260018452826024359120610e7c565b905491519160018060a01b039160031b1c168152f35b505034610416578160031936011261041657602090517fdf8b4c520ffe197c5343c6f5aec59570151ef9a492f2c624fd45ddde6135ec428152f35b5050346104165760203660031901126104165760207f3d21e5a2b633291bd1ff5f9c654e402d063783c95759d2ea521b31fb30e4da41916105eb61095b565b7fdf8b4c520ffe197c5343c6f5aec59570151ef9a492f2c624fd45ddde6135ec428552848352818520338652835261062860ff8387205416610ffc565b600380546001600160a01b0319166001600160a01b039290921691821790559051908152a180f35b5082903461041657826003193601126104165761066b610976565b90336001600160a01b03831603610687579061037b9135610dce565b608490602085519162461bcd60e51b8352820152602f60248201527f416363657373436f6e74726f6c3a2063616e206f6e6c792072656e6f756e636560448201526e103937b632b9903337b91039b2b63360891b6064820152fd5b50903461047d578060031936011261047d5761074a9135906001610704610976565b9280865260209086825261071c838589200154610a51565b80875286825283872094838060a01b031694858852825260ff84882054161561074e575b8652528320610e94565b5080f35b8087528682528387208588528252838720805460ff1916841790553385827f2f8788117e7eff1d82e926ec794901d17c78024a50270940304540a733656f0d8a80a4610740565b503461047d57602036600319011261047d57816020936001923581528085522001549051908152f35b5091903461041657806003193601126104165782356107db610976565b937fdf8b4c520ffe197c5343c6f5aec59570151ef9a492f2c624fd45ddde6135ec428452602090848252838520338652825261081c60ff8587205416610ffc565b82855260058252838520546001600160a01b039190821661088a57507f7a9e4b017aba71fe836c4faeb25ffb9cdd788be2e31b07eb8de162ae6a54fef79495169082865260058152838620826bffffffffffffffffffffffff60a01b8254161790558351928352820152a180f35b845162461bcd60e51b815290810183905260166024820152756164617074657220616c72656164792065786973747360501b6044820152606490fd5b503461047d57602036600319011261047d57602092506108e461095b565b50549051908152f35b9250503461047d57602036600319011261047d573563ffffffff60e01b811680910361047d5760209250635a05180f60e01b8114908115610930575b5015158152f35b637965db0b60e01b81149150811561094a575b5038610929565b6301ffc9a760e01b14905038610943565b600435906001600160a01b038216820361097157565b600080fd5b602435906001600160a01b038216820361097157565b604435906001600160a01b038216820361097157565b67ffffffffffffffff81116109b657604052565b634e487b7160e01b600052604160045260246000fd5b90601f8019910116810190811067ffffffffffffffff8211176109b657604052565b67ffffffffffffffff81116109b657601f01601f191660200190565b81601f8201121561097157803590610a21826109ee565b92610a2f60405194856109cc565b8284526020838301011161097157816000926020809301838601378301015290565b600090808252602090828252604092838120338252835260ff848220541615610a7a5750505050565b83519167ffffffffffffffff90336060850183811186821017610d72578752602a85528585019187368437855115610d5e5760308353855191600192831015610d4a576078602188015360295b838111610ce05750610c9e5790875193608085019085821090821117610c8a57885260428452868401946060368737845115610c7657603086538451821015610c765790607860218601536041915b818311610c0857505050610bc657610bc2938693610ba693610b97604894610b6e9a519a8b957f416363657373436f6e74726f6c3a206163636f756e74200000000000000000008c8801525180926037880190610d86565b8401917001034b99036b4b9b9b4b733903937b6329607d1b603784015251809386840190610d86565b010360288101875201856109cc565b5192839262461bcd60e51b845260048401526024830190610da9565b0390fd5b60648587519062461bcd60e51b825280600483015260248201527f537472696e67733a20686578206c656e67746820696e73756666696369656e746044820152fd5b909192600f81166010811015610c62576f181899199a1a9b1b9c1cb0b131b232b360811b901a610c388588610e55565b5360041c928015610c4e57600019019190610b16565b634e487b7160e01b82526011600452602482fd5b634e487b7160e01b83526032600452602483fd5b634e487b7160e01b81526032600452602490fd5b634e487b7160e01b86526041600452602486fd5b60648789519062461bcd60e51b825280600483015260248201527f537472696e67733a20686578206c656e67746820696e73756666696369656e746044820152fd5b90600f81166010811015610d36576f181899199a1a9b1b9c1cb0b131b232b360811b901a610d0e838a610e55565b5360041c908015610d225760001901610ac7565b634e487b7160e01b87526011600452602487fd5b634e487b7160e01b88526032600452602488fd5b634e487b7160e01b86526032600452602486fd5b634e487b7160e01b85526032600452602485fd5b634e487b7160e01b85526041600452602485fd5b60005b838110610d995750506000910152565b8181015183820152602001610d89565b90602091610dc281518092818552858086019101610d86565b601f01601f1916010190565b906040610e0b92600090808252816020528282209360018060a01b03169384835260205260ff8383205416610e0e575b8152600160205220610f20565b50565b8082528160205282822084835260205282822060ff1981541690553384827ff6391f5c32d9c69d2a47ea670b442974b53935d1edc7fd64eb21e047a839171b8580a4610dfe565b908151811015610e66570160200190565b634e487b7160e01b600052603260045260246000fd5b8054821015610e665760005260206000200190600090565b91906001830160009082825280602052604082205415600014610f1a5784549468010000000000000000861015610f065783610ef6610edd886001604098999a01855584610e7c565b819391549060031b600019811b9283911b169119161790565b9055549382526020522055600190565b634e487b7160e01b83526041600452602483fd5b50925050565b90600182019060009281845282602052604084205490811515600014610ff55760001991808301818111610d2257825490848201918211610fe157808203610fac575b50505080548015610f9857820191610f7b8383610e7c565b909182549160031b1b191690555582526020526040812055600190565b634e487b7160e01b86526031600452602486fd5b610fcc610fbc610edd9386610e7c565b90549060031b1c92839286610e7c565b90558652846020526040862055388080610f63565b634e487b7160e01b88526011600452602488fd5b5050505090565b1561100357565b60405162461bcd60e51b815260206004820152600a60248201526937b7363c9030b236b4b760b11b6044820152606490fd5b1561103c57565b60405162461bcd60e51b81526020600482015260116024820152701859185c1d195c881b9bdd08199bdd5b99607a1b6044820152606490fd5b919290156110d75750815115611089575090565b3b156110925790565b60405162461bcd60e51b815260206004820152601d60248201527f416464726573733a2063616c6c20746f206e6f6e2d636f6e74726163740000006044820152606490fd5b8251909150156110ea5750805190602001fd5b60405162461bcd60e51b815260206004820152908190610bc2906024830190610da956fea264697066735822122098962f0a7372f999a76f533439622a4a20c120b6dd91ba62224ea5d3969ad00d64736f6c63430008110033",
  "devdoc": {
    "kind": "dev",
    "methods": {
      "getRoleAdmin(bytes32)": {
        "details": "Returns the admin role that controls `role`. See {grantRole} and {revokeRole}. To change a role's admin, use {_setRoleAdmin}."
      },
      "getRoleMember(bytes32,uint256)": {
        "details": "Returns one of the accounts that have `role`. `index` must be a value between 0 and {getRoleMemberCount}, non-inclusive. Role bearers are not sorted in any particular way, and their ordering may change at any point. WARNING: When using {getRoleMember} and {getRoleMemberCount}, make sure you perform all queries on the same block. See the following https://forum.openzeppelin.com/t/iterating-over-elements-on-enumerableset-in-openzeppelin-contracts/2296[forum post] for more information."
      },
      "getRoleMemberCount(bytes32)": {
        "details": "Returns the number of accounts that have `role`. Can be used together with {getRoleMember} to enumerate all bearers of a role."
      },
      "grantRole(bytes32,address)": {
        "details": "Grants `role` to `account`. If `account` had not been already granted `role`, emits a {RoleGranted} event. Requirements: - the caller must have ``role``'s admin role. May emit a {RoleGranted} event."
      },
      "hasRole(bytes32,address)": {
        "details": "Returns `true` if `account` has been granted `role`."
      },
      "renounceRole(bytes32,address)": {
        "details": "Revokes `role` from the calling account. Roles are often managed via {grantRole} and {revokeRole}: this function's purpose is to provide a mechanism for accounts to lose their privileges if they are compromised (such as when a trusted device is misplaced). If the calling account had been revoked `role`, emits a {RoleRevoked} event. Requirements: - the caller must be `account`. May emit a {RoleRevoked} event."
      },
      "revokeRole(bytes32,address)": {
        "details": "Revokes `role` from `account`. If `account` had been granted `role`, emits a {RoleRevoked} event. Requirements: - the caller must have ``role``'s admin role. May emit a {RoleRevoked} event."
      },
      "supportsInterface(bytes4)": {
        "details": "See {IERC165-supportsInterface}."
      }
    },
    "version": 1
  },
  "userdoc": {
    "kind": "user",
    "methods": {
      "ADMIN_ROLE()": {
        "notice": "Identifier of the admin role"
      },
      "WETH()": {
        "notice": "VIEW FUNCTIONS *"
      },
      "__setFeeWallet(address)": {
        "notice": "ACCESS CONTROLLED FUNCTIONS *"
      },
      "swapExactTokensForETH(uint256,address,address,uint256,uint256,uint256,bytes)": {
        "notice": "USER INTERFACE *"
      }
    },
    "version": 1
  },
  "storageLayout": {
    "storage": [
      {
        "astId": 24,
        "contract": "contracts/ZimaRouter.sol:ZimaRouter",
        "label": "_roles",
        "offset": 0,
        "slot": "0",
        "type": "t_mapping(t_bytes32,t_struct(RoleData)19_storage)"
      },
      {
        "astId": 334,
        "contract": "contracts/ZimaRouter.sol:ZimaRouter",
        "label": "_roleMembers",
        "offset": 0,
        "slot": "1",
        "type": "t_mapping(t_bytes32,t_struct(AddressSet)2942_storage)"
      },
      {
        "astId": 4031,
        "contract": "contracts/ZimaRouter.sol:ZimaRouter",
        "label": "_WETH",
        "offset": 0,
        "slot": "2",
        "type": "t_contract(IWETH)4355"
      },
      {
        "astId": 4034,
        "contract": "contracts/ZimaRouter.sol:ZimaRouter",
        "label": "_feeWallet",
        "offset": 0,
        "slot": "3",
        "type": "t_address_payable"
      },
      {
        "astId": 4037,
        "contract": "contracts/ZimaRouter.sol:ZimaRouter",
        "label": "_defaultFeeBps",
        "offset": 0,
        "slot": "4",
        "type": "t_uint256"
      },
      {
        "astId": 4043,
        "contract": "contracts/ZimaRouter.sol:ZimaRouter",
        "label": "_adapters",
        "offset": 0,
        "slot": "5",
        "type": "t_mapping(t_uint256,t_contract(IAdapter)4338)"
      }
    ],
    "types": {
      "t_address": {
        "encoding": "inplace",
        "label": "address",
        "numberOfBytes": "20"
      },
      "t_address_payable": {
        "encoding": "inplace",
        "label": "address payable",
        "numberOfBytes": "20"
      },
      "t_array(t_bytes32)dyn_storage": {
        "base": "t_bytes32",
        "encoding": "dynamic_array",
        "label": "bytes32[]",
        "numberOfBytes": "32"
      },
      "t_bool": {
        "encoding": "inplace",
        "label": "bool",
        "numberOfBytes": "1"
      },
      "t_bytes32": {
        "encoding": "inplace",
        "label": "bytes32",
        "numberOfBytes": "32"
      },
      "t_contract(IAdapter)4338": {
        "encoding": "inplace",
        "label": "contract IAdapter",
        "numberOfBytes": "20"
      },
      "t_contract(IWETH)4355": {
        "encoding": "inplace",
        "label": "contract IWETH",
        "numberOfBytes": "20"
      },
      "t_mapping(t_address,t_bool)": {
        "encoding": "mapping",
        "key": "t_address",
        "label": "mapping(address => bool)",
        "numberOfBytes": "32",
        "value": "t_bool"
      },
      "t_mapping(t_bytes32,t_struct(AddressSet)2942_storage)": {
        "encoding": "mapping",
        "key": "t_bytes32",
        "label": "mapping(bytes32 => struct EnumerableSet.AddressSet)",
        "numberOfBytes": "32",
        "value": "t_struct(AddressSet)2942_storage"
      },
      "t_mapping(t_bytes32,t_struct(RoleData)19_storage)": {
        "encoding": "mapping",
        "key": "t_bytes32",
        "label": "mapping(bytes32 => struct AccessControl.RoleData)",
        "numberOfBytes": "32",
        "value": "t_struct(RoleData)19_storage"
      },
      "t_mapping(t_bytes32,t_uint256)": {
        "encoding": "mapping",
        "key": "t_bytes32",
        "label": "mapping(bytes32 => uint256)",
        "numberOfBytes": "32",
        "value": "t_uint256"
      },
      "t_mapping(t_uint256,t_contract(IAdapter)4338)": {
        "encoding": "mapping",
        "key": "t_uint256",
        "label": "mapping(uint256 => contract IAdapter)",
        "numberOfBytes": "32",
        "value": "t_contract(IAdapter)4338"
      },
      "t_struct(AddressSet)2942_storage": {
        "encoding": "inplace",
        "label": "struct EnumerableSet.AddressSet",
        "members": [
          {
            "astId": 2941,
            "contract": "contracts/ZimaRouter.sol:ZimaRouter",
            "label": "_inner",
            "offset": 0,
            "slot": "0",
            "type": "t_struct(Set)2627_storage"
          }
        ],
        "numberOfBytes": "64"
      },
      "t_struct(RoleData)19_storage": {
        "encoding": "inplace",
        "label": "struct AccessControl.RoleData",
        "members": [
          {
            "astId": 16,
            "contract": "contracts/ZimaRouter.sol:ZimaRouter",
            "label": "members",
            "offset": 0,
            "slot": "0",
            "type": "t_mapping(t_address,t_bool)"
          },
          {
            "astId": 18,
            "contract": "contracts/ZimaRouter.sol:ZimaRouter",
            "label": "adminRole",
            "offset": 0,
            "slot": "1",
            "type": "t_bytes32"
          }
        ],
        "numberOfBytes": "64"
      },
      "t_struct(Set)2627_storage": {
        "encoding": "inplace",
        "label": "struct EnumerableSet.Set",
        "members": [
          {
            "astId": 2622,
            "contract": "contracts/ZimaRouter.sol:ZimaRouter",
            "label": "_values",
            "offset": 0,
            "slot": "0",
            "type": "t_array(t_bytes32)dyn_storage"
          },
          {
            "astId": 2626,
            "contract": "contracts/ZimaRouter.sol:ZimaRouter",
            "label": "_indexes",
            "offset": 0,
            "slot": "1",
            "type": "t_mapping(t_bytes32,t_uint256)"
          }
        ],
        "numberOfBytes": "64"
      },
      "t_uint256": {
        "encoding": "inplace",
        "label": "uint256",
        "numberOfBytes": "32"
      }
    }
  }
}